:020000040800F2
:1000000068060020190200082102000823020008E7
:10001000250200082702000829020008000000004D
:100020000000000000000000000000002B0200089B
:100030002D020008000000002F0200083102000815
:1000400033020008330200083302000833020008BC
:100050003302000833020008D5020008210300081B
:100060006D030008B90300083302000833020008DA
:10007000330200083302000833020008330200088C
:1000800033020008330200083302000800000000B9
:100090000000000000000000000000003302000823
:1000A000330200083302000833020008330200085C
:1000B000330200083302000833020008330200084C
:1000C000330200083302000833020008330200083C
:1000D0003302000833020008330200080000000069
:1000E0003302000833020008330200080000000059
:1000F00000000000000000000000000033020008C3
:100100000000000033020008330200083302000838
:1001100000000000000000000000000000000000DF
:1001200033020008330200083302000833020008DB
:100130003302000800000000000000000000000082
:100140000000000000000000000000003302000872
:1001500033020008330200083302000833020008AB
:100160003302000833020008000000000000000015
:10017000000000000000000000000000000000007F
:100180000000000033020008000000000000000032
:100190003302000800F002F800F02EF80AA090E800
:1001A000000C82448344AAF10107DA4501D100F032
:1001B00023F8AFF2090EBAE80F0013F0010F18BFD1
:1001C000FB1A43F0010318474C0500005C050000D2
:1001D0000023002400250026103A28BF78C1FBD850
:1001E000520728BF30C148BF0B6070471FB500F0F1
:1001F00084FA1FBD10B510BD00F031F81146FFF7AD
:10020000F5FF00F053FA00F04FF803B4FFF7F2FFE8
:1002100003BC00F057F80000094880470948004730
:10022000FEE7FEE7FEE7FEE7FEE7FEE7FEE7FEE7A6
:10023000FEE7FEE704480549054A064B7047000003
:10024000E504000895010008680000206806002009
:1002500068020020680200207047704770477546AA
:1002600000F02CF8AE4605006946534620F0070022
:10027000854618B020B5FFF7DDFFBDE820404FF000
:1002800000064FF000074FF000084FF0000BAC469F
:10029000ACE8C009ACE8C009ACE8C009ACE8C009EA
:1002A00021F007018D46704710B50446AFF300807A
:1002B0002046BDE81040FFF7A8BF00000048704787
:1002C0000000002001491820ABBEFEE72600020016
:1002D0007047000010B543F61440C4F201000168F5
:1002E00040F2144441F0010101600620C4F202040E
:1002F00000F096F9D4F8FC03C00708BF10BD2068D1
:1003000080F001002060206840F020002060342050
:1003100000F014F9206820F02000206010BD0000DB
:1003200010B543F61440C4F20100016840F21444D1
:1003300041F0010101600720C4F2020400F070F9ED
:10034000D4F8FC03800758BF10BD206880F002007D
:100350002060206840F020002060352000F0EEF89A
:10036000206820F02000206010BD000010B543F68A
:100370001440C4F20100016840F2144441F001014C
:1003800001600820C4F2020400F04AF9D4F8FC032A
:10039000400758BF10BD206880F00400206020682E
:1003A00040F020002060362000F0C8F8206820F0DF
:1003B0002000206010BD000010B543F61440C4F2C8
:1003C0000100016840F2144441F00101016009207C
:1003D000C4F2020400F024F9D4F8FC03000758BF6B
:1003E00010BD206880F008002060206840F02000E8
:1003F0002060372000F0A2F8206820F02000206064
:1004000010BD000010B543F60804C4F201042068D2
:10041000002140F002002060D4F8F80340F0010011
:10042000C4F8F803D4F8000440F00100C4F8000454
:10043000062062B600F014F9062000F0F1F806205C
:1004400000F0FEF82068002140F020002060D4F881
:10045000F80340F00200C4F8F803D4F8000440F0B8
:100460000200C4F80004072000F0FAF8072000F0AA
:10047000D7F8072000F0E4F82068002140F400706D
:100480002060D4F8F80340F00400C4F8F803D4F86E
:10049000000440F00400C4F80004082000F0E0F874
:1004A000082000F0BDF8082000F0CAF820680321F9
:1004B00040F400502060D4F8F80340F00800C4F87D
:1004C000F803D4F8000440F00800C4F80004092040
:1004D00000F0C6F8092000F0A3F8092000F0B0F8F9
:1004E00010BD00004EF68850CEF2000001684FF0BB
:1004F000000C41F47001016043F60001C4F20201F6
:100500000A6842F001020A60C1F808C00B684FF6A1
:10051000FF72CFF6F6621A400A6043F21002C2F28E
:1005200000424A600A6822F480220A60C1F80CC0C6
:100530004FF0006140F8801C7047000044F2004119
:10054000C4F20001486000BF08684006FCD570474F
:1005500043F63000C4F20200016841F0010101607D
:10056000016941F4003101610020C4F20200816898
:1005700041F020018160816841F080018160016A61
:1005800021F47F410162016A41F4EE410162016898
:1005900021F0F0010160016841F0A001016044F226
:1005A0000C40C4F2000040F2836140F8041C016872
:1005B00041F008010160016841F0040101604168F7
:1005C00041F40051416000218160016841F4005113
:1005D0000160704744F20040C4F2000001688906DF
:1005E000FCD5416840F26002C2F20002117000BF07
:1005F00001688906FCD5416840F26102C2F200023E
:1006000011701178312918BF704700BF0168890641
:10061000FCD5406840F26201C2F2000108707047E8
:10062000002848BF704700F01F01012202FA01F1C3
:100630004EF280224009CEF2000242F820107047AC
:10064000002848BF704700F01F01012202FA01F1A3
:100650004EF200124009CEF2000242F8201070471C
:100660004EF6145300F00F02CEF2000309011A44B3
:1006700000F16043B0F1FF3FC8BF03F56442117061
:100680007047000040F26200C2F20000017840F2C0
:100690001443C4F2020330394FF0010C1A680CFA0B
:1006A00001F15140196039210170704743F6300063
:1006B000C4F20200016840F2144441F004010160F8
:1006C0004169C4F2020441F480414161016841F092
:1006D0000201016040F2555044F8140CFFF792FEFD
:1006E000FFF736FF00202060206820F02000206007
:1006F000FFF770FFFFF7C6FFFAE7F1EE100A4FF6BB
:10070000FF71C0F2C03120EA010040F04070E1EE1C
:10071000100A704724070008000000206806000047
:04072000D0010008FC
:0400000508000219D4
:00000001FF
