:020000040800F2
:1000000090060020350200083D0200083F0200086B
:1000100041020008430200084502000800000000F9
:10002000000000000000000000000000470200087F
:1000300049020008000000004B0200084D020008C1
:100040004F0200084F0200084F0200084F0200084C
:100050004F0200084F0200084F0200084F0200083C
:100060004F0200084F0200084F0200084F0200082C
:100070004F0200084F0200084F0200084F0200081C
:100080004F0200084F0200084F0200080000000065
:100090000000000000000000000000004F02000807
:1000A0004F0200084F0200084F0200084F020008EC
:1000B0004F0200084F0200084F0200084F020008DC
:1000C0004F0200084F0200084F0200084F020008CC
:1000D0004F0200084F0200084F0200080000000015
:1000E0004F0200084F0200084F0200080000000005
:1000F0000000000000000000000000004F020008A7
:10010000000000004F0200084F0200084F020008E4
:1001100000000000000000000000000000000000DF
:100120004F0200084F0200084F0200084F0200086B
:100130004F02000800000000000000000000000066
:100140000000000000000000000000004F02000856
:100150004F0200084F0200084F0200084F0200083B
:100160004F0200084F0200080000000000000000DD
:10017000000000000000000000000000000000007F
:10018000000000004F020008000000000000000016
:100190004F02000800F002F800F03CF80AA090E8D6
:1001A000000C82448344AAF10107DA4501D100F032
:1001B00031F8AFF2090EBAE80F0013F0010F18BFC3
:1001C000FB1A43F001031847140500003405000032
:1001D000103A24BF78C878C1FAD8520724BF30C873
:1001E00030C144BF04680C60704700000023002445
:1001F00000250026103A28BF78C1FBD8520728BF37
:1002000030C148BF0B6070471FB500F05AFA1FBDE0
:1002100010B510BD00F031F81146FFF7F5FF00F002
:10022000F3F900F04FF803B4FFF7F2FF03BC00F05E
:1002300057F800000948804709480047FEE7FEE7F5
:10024000FEE7FEE7FEE7FEE7FEE7FEE7FEE7FEE786
:1002500004480549054A064B70470000F1020008B2
:1002600095010008900000209006002090020020D8
:1002700090020020704770477047754600F02CF8D8
:10028000AE4605006946534620F00700854618B083
:1002900020B5FFF7DDFFBDE820404FF000064FF02E
:1002A00000074FF000084FF0000BAC46ACE8C00967
:1002B000ACE8C009ACE8C009ACE8C00921F007010E
:1002C0008D46704710B50446AFF300802046BDE868
:1002D0001040FFF7A8BF000000487047280000202A
:1002E00001491820ABBEFEE726000200704700005F
:1002F0004EF68850CEF20000016841F470010160B2
:100300004FF0006140F8801C704700002DE9F04775
:1003100040F28808C2F20008D8F800000928C8BFD7
:10032000BDE8F0870025182640F2000740F28C0453
:10033000CFF6FF75C4F20206C2F20007C2F2000453
:100340004FF000094FF0FF3A11E000BFC4F80090F1
:10035000D8F80000092808BFC8F800A0D8F80000A5
:100360000130C8F80000D8F800000A2837DA3560F4
:10037000D8F8000057F820003060206809280BDD0D
:10038000E4E700BF00F02EF800F0F8F82068013034
:10039000206020680A28D9DAC6F80054206857F887
:1003A0002000C6F8000400F091F820B100F0BEF87B
:1003B00060B900F017F800F091F80028E4D000F0E0
:1003C00037F90028DED0FFF7A1FFDDE73560386898
:1003D00030607120C6F80054C6F80004FEE7BDE89E
:1003E000F08700002DE9F04740F28808C2F20008CB
:1003F000D8F80000002848BFBDE8F087002518267F
:1004000040F2000740F28C04CFF6FF75C4F20206FA
:10041000C2F20007C2F200044FF009094FF00A0AC5
:1004200012E000BFC4F80090D8F80000002808BF10
:10043000C8F800A0D8F800000138C8F80000D8F8C3
:100440000000B0F1FF3F36DD3560D8F8000057F806
:100450002000306020680028E4D400BFC6F80054B3
:10046000206857F82000C6F8000400F027F858B1BB
:1004700000F034F810B100F0DBF810B1FFF746FFE0
:1004800002E0FFF7AFFF00BF00F050F848B900F0FE
:1004900075F82068013820602068B0F1FF3FDDDC8E
:1004A000C0E73560386830607120C6F80054C6F87F
:1004B000000400BFFEE7BDE8F087000040F6100032
:1004C000C4F20200006800F00100704740F610001E
:1004D000C4F202000068C0F340007047B0B582B0BB
:1004E0004EF260310020C0F216010190009100BF71
:1004F000019001980099884205D8FFF7DFFF20B1ED
:1005000001980130F4E7012400E0002440F218458E
:10051000C4F2020524B14FF40070286000F02EF8F8
:100520004FF000712046296002B0B0BDB0B582B076
:100530004EF260310020C0F216010190009100BF20
:10054000019001980099884205D8FFF7BFFF20B1BC
:1005500001980130F4E7012400E0002440F218453E
:10056000C4F2020524B14FF40070286000F006F8D0
:100570004FF000712046296002B0B0BD81B000206C
:100580000090009000994DF29100C0F2030081426A
:1005900006D200BF00990131009100998142F9D340
:1005A00001B0704743F63000C4F202000168052232
:1005B00041F00101016001684FF6FF7341F0020153
:1005C0000160016841F0040101601420C4F20200DE
:1005D0004FF0553140F8141CC0F8EC1340F21441B0
:1005E000C4F20201C1F8EC2302689A4302600A686F
:1005F0006FF30F020A60026842F03F02026008686F
:1006000040F0370008607047FFF7CCFF00F002F8B9
:10061000FCE7000080B5FFF751FF002818BFFFF787
:1006200075FEFFF753FF002818BFFFF7DBFE80BD04
:10063000B0B582B018240020C4F20204CFF6FF70D7
:10064000C4F80004206040F28C00C2F20000006890
:1006500040F20001C2F2000151F820004DF2910574
:10066000C4F8000440F28800C2F200000068C0F242
:10067000030551F820002060FFF780FF0020019063
:1006800001900199A94214DA691E00BFD4F8F82735
:10069000D20710D1D4F8F82792070FD4019A8A42D2
:1006A00008BF0190019A01320192019AAA42EDDB42
:1006B000002002B0B0BD012002B0B0BD002002B0E9
:1006C000B0BDF1EE100A4FF6FF71C0F2C03120EA62
:1006D000010040F04070E1EE100A7047FC0600088F
:1006E0000000002028000000D001000824070008B6
:1006F0002800002068060000EC0100083F00000010
:10070000060000005B0000004F00000066000000D3
:100710006D0000007D000000070000007F00000069
:040720006F00000066
:0400000508000235B8
:00000001FF
